:03000000020C6E81
:03000B00020CFAEA
:03002300020A8B43
:10080000120E6C120E71120D427F827E00120DF2DA
:100810007F41120E107B397D037F01120DA27FF400
:100820007E01120D68120D427F827E00120DF27F52
:1008300041120E107B387D037F01120DA27FF47EE2
:1008400001120D68120D427F827E00120DF27F416F
:10085000120E107B377D037F01120DA27FF47E0103
:10086000120D68120D427F827E00120DF27F41123E
:100870000E107B367D037F01120DA27FF47E0112E4
:100880000D68120D427F827E00120DF27F41120E22
:10089000107B357D037F01120DA27FF47E01120DC6
:1008A00068120D427F827E00120DF27F41120E10FF
:1008B0007B347D037F01120DA27FF47E01120D684F
:1008C000120D427F827E00120DF27F41120E107BCC
:1008D000337D037F01120DA27FF47E01120D681299
:1008E0000D427F827E00120DF27F41120E107B328C
:1008F0007D037F01120DA27FF47E01120D68120D9F
:10090000427F827E00120DF27F41120E107B317DFC
:10091000037F01120DA27FF47E01120D68120D42B9
:100920007F827E00120DF27F41120E107B307D031C
:100930007F01120DA27FF47E01120D68120E1E7F40
:10094000E87E03020D6830B35020B44D20B54A2034
:10095000B64730B744E4F50EF50FF510F511120D5A
:10096000427F827E00120DF27F41120E107B517D7C
:1009700003E4FF120DA2120D427F827E00120DF2DF
:100980007F41120E10AB0D7D05E4FF120DA2050D87
:10099000E50D7002050C12080030B34E30B44B3038
:1009A000B54820B64530B742E4F50EF50FF51075A1
:1009B0001146120D427F827E00120DF27F41120E0F
:1009C000107B527D03E4FF120DA20509E5097002B8
:1009D00005087F827E00120DF27F41120E10AB09D6
:1009E0007D08E4FF120DA2120E1E30B34F20B44C4E
:1009F00030B54930B64630B743750E00750F46E442
:100A0000F510F511120D427F827E00120DF27F412A
:100A1000120E107B4C7D03E4FF120DA2050BE50BBB
:100A20007002050A7F827E00120DF27F41120E10C5
:100A3000AB0B7D097F01120DA2120E1E30B34B309D
:100A4000B44820B54530B74230B63F750E00750F3B
:100A50004B75100075114B120D427F827E00120DF6
:100A6000F27F41120E107B507D03E4FF120DA212A3
:100A70000D427F827E00120DF27F41120E107B6BC1
:100A80007D017F01120DA2120E1E22C0E0C0F0C037
:100A900083C082C0D075D000C000C001C002C003B6
:100AA000C004C005C006C007209803020B8FC2987F
:100AB000859918E518B47727750E00750F467510DF
:100AC00000751146120D427F827E00120DF27F41A9
:100AD000120E107B507D03E4FF120DA2120E1EE5D4
:100AE00018B47327750E00750F4675100075114602
:100AF000120D427F827E00120DF27F41120E107B9A
:100B0000537D03E4FF120DA2120E38E518B46127DD
:100B1000750E00750F46751000751100120D427F9D
:100B2000827E00120DF27F41120E107B417D03E4A4
:100B3000FF120DA2120E1EE518B46427750E007583
:100B40000F00751000751146120D427F827E001253
:100B50000DF27F41120E107B447D03E4FF120DA2C3
:100B6000120E1EE518B46327750E00750F00751080
:100B700000751100120D427F827E00120DF27F413E
:100B8000120E107B517D03E4FF120DA2120E1ED037
:100B900007D006D005D004D003D002D001D000D0B9
:100BA000D0D082D083D0F0D0E032120D88120E0067
:100BB000D2AF75100075111E750E00750F1E12094B
:100BC00046E50F450E7013E5114510700DE51564EF
:100BD00001451470057F51120E44D3E50F9511E5C0
:100BE000106480F8E50E648098400DE515640145B9
:100BF0001470057F41120E44C3E50F9511E5106492
:100C000080F8E50E648098500DE515640145147078
:100C1000057F44120E44D3E50F9400E50E648094E2
:100C2000804018D3E5119400E51064809480400B57
:100C3000E515451470057F53120E44D3E50F94005B
:100C4000E50E648094805003020BBED3E51194003E
:100C5000E510648094805003020BBEE515640145E5
:100C6000146003020BBE7F50120E44020BBE787F4D
:100C7000E4F6D8FD758118020CB5020BAAE493A323
:100C8000F8E493A34003F68001F208DFF48029E43E
:100C900093A3F85407240CC8C333C4540F4420C88A
:100CA000834004F456800146F6DFE4800B01020421
:100CB0000810204080900DBCE47E019360BCA3FF2F
:100CC000543F30E509541FFEE493A360010ECF5456
:100CD000C025E060A840B8E493A3FAE493A3F8E445
:100CE00093A3C8C582C8CAC583CAF0A3C8C582C8B1
:100CF000CAC583CADFE9DEE780BEC0E0C0D0758C1C
:100D0000FF758A9C0513E51370020512C3950FE564
:100D100012950E5004D2A18002C2A1C3E513951111
:100D2000E51295105004D2A08002C2A0C3E513942E
:100D300064E51294004006751200751300D0D0D0FF
:100D4000E0327F0F120DEB7F05120DEB7F087E0066
:100D5000120DF27F017E00120DF27F067E00120D51
:100D6000F27F0C7E00020DF2D3EF9400EE648094CB
:100D70008040147D727C00ED1D70011CED4C70F7FD
:100D8000EF1F70E41E80E12253877F7598507589AC
:100D900021758BFD758DFDC2ABD28ED2AFD2ACD298
:100DA0009C22AE07EE70027A80BE01027AC0ED2A64
:100DB000FAFF7E00120DF2AF03020E10020C0000CB
:100DC00002080000020A000002100000020E0000EB
:100DD0000212000000C291C2927F02AD07E4FCEC57
:100DE000C39D5006120E2B0C80F522120DDB7F38AE
:100DF0007E008F80C290120DD5D2927F02020DDB51
:100E0000758921758CFF758A9CD2A9D28CD2AF22AC
:100E10008F80D290120DD5D2927F02020DDB120E7E
:100E200058120E6775140075150122E4FFE4FE0EDA
:100E3000BE21FC0FBF0AF622120E5D120E62E4F50F
:100E400014F515228F993099FDC29922120E6C0269
:100E50000E67120E71020E58C295D29422D295C21C
:100E60009422C297D29622D297C29622D295D29439
:060E700022D297D2962267
:00000001FF
