:10094700120972D2AF750A00750B1E75080075097A
:060957001E12088C80FB5B
:0509AD00C295D2942266
:0509B200D295C2942261
:0509B700C297D2962258
:0509BC00D297C2962253
:0509C100D295D2942242
:0509C600D297D2962239
:06098F001209AD0209BCD3
:060995001209B20209B7CD
:06099B001209C10209BCB3
:0609A1001209C60209ADB7
:0609A7001209C10209C69D
:10095D00EF1FAC0670011E4C600A7D147C71DCFE2D
:04096D00DDFC80EC41
:010971002263
:0C098200020A000002080000020C000045
:10097200438901758CFF758A9CD2A9D28CD2AF2291
:03000B000208FFE9
:1008FF00C0E0C0D0758CFF758A9C050DE50D7002A8
:10090F00050CC39509E50C95085004D2918002C2DD
:10091F0091C3E50D950BE50C950A5004D29080021A
:10092F00C290C3E50D9464E50C94004006750C006D
:08093F00750D00D0D0D0E032AC
:10088C0030B31830B41530B51230B60F30B70CE4A5
:10089C00F508F509F50AF50B1209A720B31A20B4CF
:1008AC001720B51430B71130B60E75080075091E37
:1008BC00E4F50AF50B12098F30B31930B41620B5D4
:1008CC001320B61020B70DE4F508F509F50A750BE1
:1008DC001E12098F20B31B20B41820B51520B71297
:1008EC0020B60F750800750923750A00750B2312C5
:0308FC00098F223F
:03000000020800F3
:0C080000787FE4F6D8FD75810D020847F2
:10080C00020947E493A3F8E493A34003F68001F2B2
:10081C0008DFF48029E493A3F85407240CC8C333ED
:10082C00C4540F4420C8834004F456800146F6DFBC
:10083C00E4800B0102040810204080900982E47EC1
:10084C00019360BCA3FF543F30E509541FFEE493B1
:10085C00A360010ECF54C025E060A840B8E493A378
:10086C00FAE493A3F8E493A3C8C582C8CAC583CAA3
:10087C00F0A3C8C582C8CAC583CADFE9DEE780BE5B
:01098E000068
:00000001FF
